{
  "contractName": "PDS",
  "abi": [
    {
      "inputs": [
        {
          "internalType": "address[]",
          "name": "accounts",
          "type": "address[]"
        }
      ],
      "stateMutability": "nonpayable",
      "type": "constructor"
    },
    {
      "inputs": [
        {
          "internalType": "address",
          "name": "",
          "type": "address"
        }
      ],
      "name": "admins",
      "outputs": [
        {
          "internalType": "bool",
          "name": "",
          "type": "bool"
        }
      ],
      "stateMutability": "view",
      "type": "function",
      "constant": true
    },
    {
      "inputs": [
        {
          "internalType": "string",
          "name": "",
          "type": "string"
        }
      ],
      "name": "dataHash",
      "outputs": [
        {
          "internalType": "string",
          "name": "",
          "type": "string"
        }
      ],
      "stateMutability": "view",
      "type": "function",
      "constant": true
    },
    {
      "inputs": [],
      "name": "hashCount",
      "outputs": [
        {
          "internalType": "uint256",
          "name": "",
          "type": "uint256"
        }
      ],
      "stateMutability": "view",
      "type": "function",
      "constant": true
    },
    {
      "inputs": [
        {
          "internalType": "address",
          "name": "",
          "type": "address"
        }
      ],
      "name": "wallets",
      "outputs": [
        {
          "internalType": "bool",
          "name": "",
          "type": "bool"
        }
      ],
      "stateMutability": "view",
      "type": "function",
      "constant": true
    },
    {
      "inputs": [
        {
          "internalType": "address",
          "name": "addr",
          "type": "address"
        }
      ],
      "name": "addUser",
      "outputs": [],
      "stateMutability": "nonpayable",
      "type": "function"
    },
    {
      "inputs": [
        {
          "internalType": "address",
          "name": "addr",
          "type": "address"
        }
      ],
      "name": "removeUser",
      "outputs": [],
      "stateMutability": "nonpayable",
      "type": "function"
    },
    {
      "inputs": [
        {
          "internalType": "string",
          "name": "_id",
          "type": "string"
        },
        {
          "internalType": "string",
          "name": "hash",
          "type": "string"
        }
      ],
      "name": "addRecord",
      "outputs": [],
      "stateMutability": "nonpayable",
      "type": "function"
    },
    {
      "inputs": [
        {
          "internalType": "string",
          "name": "hash",
          "type": "string"
        },
        {
          "internalType": "string",
          "name": "_id",
          "type": "string"
        }
      ],
      "name": "verifyRecord",
      "outputs": [
        {
          "internalType": "bool",
          "name": "",
          "type": "bool"
        }
      ],
      "stateMutability": "view",
      "type": "function",
      "constant": true
    }
  ],
  "bytecode": "0x6080604052600060045534801561001557600080fd5b50604051610d94380380610d948339818101604052602081101561003857600080fd5b810190808051604051939291908464010000000082111561005857600080fd5b8382019150602082018581111561006e57600080fd5b825186602082028301116401000000008211171561008b57600080fd5b8083526020830192505050908051906020019060200280838360005b838110156100c25780820151818401526020810190506100a7565b5050505090500160405250505033600360006101000a81548173ffffffffffffffffffffffffffffffffffffffff021916908373ffffffffffffffffffffffffffffffffffffffff16021790555060005b60028110156101945760016002600084848151811061012e57fe5b602002602001015173ffffffffffffffffffffffffffffffffffffffff1673ffffffffffffffffffffffffffffffffffffffff16815260200190815260200160002060006101000a81548160ff0219169083151502179055508080600101915050610113565b506000600290505b815181101561021c5760018060008484815181106101b657fe5b602002602001015173ffffffffffffffffffffffffffffffffffffffff1673ffffffffffffffffffffffffffffffffffffffff16815260200190815260200160002060006101000a81548160ff021916908315150217905550808060010191505061019c565b5050610b678061022d6000396000f3fe608060405234801561001057600080fd5b50600436106100885760003560e01c806389b08f111161005b57806389b08f111461022d5780639857518814610287578063c9596248146102cb578063ea26f6d71461039957610088565b80633de2e8e91461008d578063421b2d8b14610171578063429b62e5146101b55780635bebd9d71461020f575b600080fd5b610159600480360360408110156100a357600080fd5b81019080803590602001906401000000008111156100c057600080fd5b8201836020820111156100d257600080fd5b803590602001918460018302840111640100000000831117156100f457600080fd5b90919293919293908035906020019064010000000081111561011557600080fd5b82018360208201111561012757600080fd5b8035906020019184600183028401116401000000008311171561014957600080fd5b90919293919293905050506104cd565b60405180821515815260200191505060405180910390f35b6101b36004803603602081101561018757600080fd5b81019080803573ffffffffffffffffffffffffffffffffffffffff16906020019092919050505061063f565b005b6101f7600480360360208110156101cb57600080fd5b81019080803573ffffffffffffffffffffffffffffffffffffffff16906020019092919050505061075c565b60405180821515815260200191505060405180910390f35b61021761077c565b6040518082815260200191505060405180910390f35b61026f6004803603602081101561024357600080fd5b81019080803573ffffffffffffffffffffffffffffffffffffffff169060200190929190505050610782565b60405180821515815260200191505060405180910390f35b6102c96004803603602081101561029d57600080fd5b81019080803573ffffffffffffffffffffffffffffffffffffffff1690602001909291905050506107a2565b005b610397600480360360408110156102e157600080fd5b81019080803590602001906401000000008111156102fe57600080fd5b82018360208201111561031057600080fd5b8035906020019184600183028401116401000000008311171561033257600080fd5b90919293919293908035906020019064010000000081111561035357600080fd5b82018360208201111561036557600080fd5b8035906020019184600183028401116401000000008311171561038757600080fd5b90919293919293905050506108c0565b005b610452600480360360208110156103af57600080fd5b81019080803590602001906401000000008111156103cc57600080fd5b8201836020820111156103de57600080fd5b8035906020019184600183028401116401000000008311171561040057600080fd5b91908080601f016020809104026020016040519081016040528093929190818152602001838380828437600081840152601f19601f8201169050808301925050505050505091929192905050506109ce565b6040518080602001828103825283818151815260200191508051906020019080838360005b83811015610492578082015181840152602081019050610477565b50505050905090810190601f1680156104bf5780820380516001836020036101000a031916815260200191505b509250505060405180910390f35b600073__StringUtils___________________________6346bdca9a86866000878760405180838380828437808301925050509250505090815260200160405180910390206040518463ffffffff1660e01b81526004018080602001806020018381038352868682818152602001925080828437600081840152601f19601f8201169050808301925050508381038252848181546001816001161561010002031660029004815260200191508054600181600116156101000203166002900480156105d95780601f106105ae576101008083540402835291602001916105d9565b820191906000526020600020905b8154815290600101906020018083116105bc57829003601f168201915b50509550505050505060206040518083038186803b1580156105fa57600080fd5b505af415801561060e573d6000803e3d6000fd5b505050506040513d602081101561062457600080fd5b81019080805190602001909291905050509050949350505050565b3373ffffffffffffffffffffffffffffffffffffffff16600360009054906101000a900473ffffffffffffffffffffffffffffffffffffffff1673ffffffffffffffffffffffffffffffffffffffff1614610702576040517f08c379a000000000000000000000000000000000000000000000000000000000815260040180806020018281038252601e8152602001807f596f7520617265206e6f742074686520636f6e7472616374206f776e6572000081525060200191505060405180910390fd5b60018060008373ffffffffffffffffffffffffffffffffffffffff1673ffffffffffffffffffffffffffffffffffffffff16815260200190815260200160002060006101000a81548160ff02191690831515021790555050565b60026020528060005260406000206000915054906101000a900460ff1681565b60045481565b60016020528060005260406000206000915054906101000a900460ff1681565b3373ffffffffffffffffffffffffffffffffffffffff16600360009054906101000a900473ffffffffffffffffffffffffffffffffffffffff1673ffffffffffffffffffffffffffffffffffffffff1614610865576040517f08c379a000000000000000000000000000000000000000000000000000000000815260040180806020018281038252601e8152602001807f596f7520617265206e6f742074686520636f6e7472616374206f776e6572000081525060200191505060405180910390fd5b6000600160008373ffffffffffffffffffffffffffffffffffffffff1673ffffffffffffffffffffffffffffffffffffffff16815260200190815260200160002060006101000a81548160ff02191690831515021790555050565b600160003373ffffffffffffffffffffffffffffffffffffffff1673ffffffffffffffffffffffffffffffffffffffff16815260200190815260200160002060009054906101000a900460ff1661097f576040517f08c379a00000000000000000000000000000000000000000000000000000000081526004018080602001828103825260168152602001807f596f7520617265206e6f7420617574686f72697a65640000000000000000000081525060200191505060405180910390fd5b818160008686604051808383808284378083019250505092505050908152602001604051809103902091906109b5929190610a94565b5060046000815480929190600101919050555050505050565b6000818051602081018201805184825260208301602085012081835280955050505050506000915090508054600181600116156101000203166002900480601f016020809104026020016040519081016040528092919081815260200182805460018160011615610100020316600290048015610a8c5780601f10610a6157610100808354040283529160200191610a8c565b820191906000526020600020905b815481529060010190602001808311610a6f57829003601f168201915b505050505081565b828054600181600116156101000203166002900490600052602060002090601f016020900481019282601f10610ad557803560ff1916838001178555610b03565b82800160010185558215610b03579182015b82811115610b02578235825591602001919060010190610ae7565b5b509050610b109190610b14565b5090565b5b80821115610b2d576000816000905550600101610b15565b509056fea264697066735822122054188f406c54d54b3d68b34993e6d0170c7e22f91d49e599e04da8ef8166370164736f6c63430007030033",
  "immutableReferences": {},
  "source": "// SPDX-License-Identifier: MIT\npragma solidity >=0.7.0 <0.9.0;\n\nimport \"./StringUtils.sol\";\n\ncontract PDS {\n    mapping(string => string) public dataHash;\n    mapping(address => bool) public wallets;\n    mapping(address => bool) public admins;\n    address private owner;\n    uint256 public hashCount = 0;\n\n    constructor(address[] memory accounts) {\n        owner = msg.sender;\n        for (uint256 i = 0; i < 2; i++) {\n            admins[accounts[i]] = true;\n        }\n        for (uint256 i = 2; i < accounts.length; i++) {\n            wallets[accounts[i]] = true;\n        }\n    }\n\n    modifier onlyAuthorized {\n        require(wallets[msg.sender], \"You are not authorized\");\n        _;\n    }\n\n    modifier onlyOwner {\n        require(owner == msg.sender, \"You are not the contract owner\");\n        _;\n    }\n\n    function addUser(address addr) public onlyOwner {\n        wallets[addr] = true;\n    }\n\n    function removeUser(address addr) public onlyOwner {\n        wallets[addr] = false;\n    }\n\n    function addRecord(string calldata _id, string calldata hash)\n        public\n        onlyAuthorized\n    {\n        dataHash[_id] = hash;\n        hashCount++;\n    }\n\n    function verifyRecord(string calldata hash, string calldata _id)\n        public\n        view\n        returns (bool)\n    {\n        return StringUtils.equal(hash, dataHash[_id]);\n    }\n}\n",
  "sourcePath": "/home/ubuntu/Documents/Final year project/truffle-backend/contracts/PDS.sol",
  "compiler": {
    "name": "solc",
    "version": "0.7.3+commit.9bfce1f6.Emscripten.clang"
  },
  "schemaVersion": "3.3.3",
  "updatedAt": "2021-02-22T14:08:50.287Z",
  "networkType": "ethereum",
  "devdoc": {
    "kind": "dev",
    "methods": {},
    "version": 1
  },
  "userdoc": {
    "kind": "user",
    "methods": {},
    "version": 1
  }
}