{
  "contractName": "StringUtils",
  "abi": [
    {
      "inputs": [
        {
          "internalType": "string",
          "name": "_a",
          "type": "string"
        },
        {
          "internalType": "string",
          "name": "_b",
          "type": "string"
        }
      ],
      "name": "compare",
      "outputs": [
        {
          "internalType": "int256",
          "name": "",
          "type": "int256"
        }
      ],
      "stateMutability": "pure",
      "type": "function",
      "constant": true
    },
    {
      "inputs": [
        {
          "internalType": "string",
          "name": "_a",
          "type": "string"
        },
        {
          "internalType": "string",
          "name": "_b",
          "type": "string"
        }
      ],
      "name": "equal",
      "outputs": [
        {
          "internalType": "bool",
          "name": "",
          "type": "bool"
        }
      ],
      "stateMutability": "pure",
      "type": "function",
      "constant": true
    },
    {
      "inputs": [
        {
          "internalType": "string",
          "name": "_haystack",
          "type": "string"
        },
        {
          "internalType": "string",
          "name": "_needle",
          "type": "string"
        }
      ],
      "name": "indexOf",
      "outputs": [
        {
          "internalType": "int256",
          "name": "",
          "type": "int256"
        }
      ],
      "stateMutability": "pure",
      "type": "function",
      "constant": true
    }
  ],
  "bytecode": "0x6108a3610026600b82828239805160001a60731461001957fe5b30600052607381538281f3fe730000000000000000000000000000000000000000301460806040526004361061004b5760003560e01c80633a96fdd71461005057806346bdca9a146101b65780638a0807b71461031e575b600080fd5b6101a06004803603604081101561006657600080fd5b810190808035906020019064010000000081111561008357600080fd5b82018360208201111561009557600080fd5b803590602001918460018302840111640100000000831117156100b757600080fd5b91908080601f016020809104026020016040519081016040528093929190818152602001838380828437600081840152601f19601f8201169050808301925050505050505091929192908035906020019064010000000081111561011a57600080fd5b82018360208201111561012c57600080fd5b8035906020019184600183028401116401000000008311171561014e57600080fd5b91908080601f016020809104026020016040519081016040528093929190818152602001838380828437600081840152601f19601f820116905080830192505050505050509192919290505050610484565b6040518082815260200191505060405180910390f35b610306600480360360408110156101cc57600080fd5b81019080803590602001906401000000008111156101e957600080fd5b8201836020820111156101fb57600080fd5b8035906020019184600183028401116401000000008311171561021d57600080fd5b91908080601f016020809104026020016040519081016040528093929190818152602001838380828437600081840152601f19601f8201169050808301925050505050505091929192908035906020019064010000000081111561028057600080fd5b82018360208201111561029257600080fd5b803590602001918460018302840111640100000000831117156102b457600080fd5b91908080601f016020809104026020016040519081016040528093929190818152602001838380828437600081840152601f19601f82011690508083019250505050505050919291929050505061063f565b60405180821515815260200191505060405180910390f35b61046e6004803603604081101561033457600080fd5b810190808035906020019064010000000081111561035157600080fd5b82018360208201111561036357600080fd5b8035906020019184600183028401116401000000008311171561038557600080fd5b91908080601f016020809104026020016040519081016040528093929190818152602001838380828437600081840152601f19601f820116905080830192505050505050509192919290803590602001906401000000008111156103e857600080fd5b8201836020820111156103fa57600080fd5b8035906020019184600183028401116401000000008311171561041c57600080fd5b91908080601f016020809104026020016040519081016040528093929190818152602001838380828437600081840152601f19601f820116905080830192505050505050509192919290505050610655565b6040518082815260200191505060405180910390f35b60006060839050606083905060008251905080825110156104a457815190505b60005b818110156105e5578281815181106104bb57fe5b602001015160f81c60f81b7effffffffffffffffffffffffffffffffffffffffffffffffffffffffffffff19168482815181106104f457fe5b602001015160f81c60f81b7effffffffffffffffffffffffffffffffffffffffffffffffffffffffffffff19161015610553577fffffffffffffffffffffffffffffffffffffffffffffffffffffffffffffffff945050505050610639565b82818151811061055f57fe5b602001015160f81c60f81b7effffffffffffffffffffffffffffffffffffffffffffffffffffffffffffff191684828151811061059857fe5b602001015160f81c60f81b7effffffffffffffffffffffffffffffffffffffffffffffffffffffffffffff191611156105d8576001945050505050610639565b80806001019150506104a7565b5081518351101561061b577fffffffffffffffffffffffffffffffffffffffffffffffffffffffffffffffff9350505050610639565b8151835111156106315760019350505050610639565b600093505050505b92915050565b60008061064c8484610484565b14905092915050565b600060608390506060839050600182511080610672575060018151105b8061067e575081518151115b156106ad577fffffffffffffffffffffffffffffffffffffffffffffffffffffffffffffffff92505050610867565b6fffffffffffffffffffffffffffffffff825111156106f0577fffffffffffffffffffffffffffffffffffffffffffffffffffffffffffffffff92505050610867565b6000805b835181101561083f578260008151811061070a57fe5b602001015160f81c60f81b7effffffffffffffffffffffffffffffffffffffffffffffffffffffffffffff191684828151811061074357fe5b602001015160f81c60f81b7effffffffffffffffffffffffffffffffffffffffffffffffffffffffffffff1916141561083257600191505b82518210801561078d57508351828201105b801561080a57508282815181106107a057fe5b602001015160f81c60f81b7effffffffffffffffffffffffffffffffffffffffffffffffffffffffffffff191684838301815181106107db57fe5b602001015160f81c60f81b7effffffffffffffffffffffffffffffffffffffffffffffffffffffffffffff1916145b1561081c57818060010192505061077b565b82518214156108315780945050505050610867565b5b80806001019150506106f4565b507fffffffffffffffffffffffffffffffffffffffffffffffffffffffffffffffff93505050505b9291505056fea2646970667358221220d936f5642fdddde866457356fcdba053912de198101679166519cb243d4ec27664736f6c63430007030033",
  "immutableReferences": {},
  "source": "// SPDX-License-Identifier: MIT\npragma solidity >=0.7.0 <0.9.0;\n\nlibrary StringUtils {\n    /// @dev Does a byte-by-byte lexicographical comparison of two strings.\n    /// @return a negative number if `_a` is smaller, zero if they are equal\n    /// and a positive numbe if `_b` is smaller.\n    function compare(string memory _a, string memory _b)\n        public\n        pure\n        returns (int256)\n    {\n        bytes memory a = bytes(_a);\n        bytes memory b = bytes(_b);\n        uint256 minLength = a.length;\n        if (b.length < minLength) minLength = b.length;\n        //@todo unroll the loop into increments of 32 and do full 32 byte comparisons\n        for (uint256 i = 0; i < minLength; i++)\n            if (a[i] < b[i]) return -1;\n            else if (a[i] > b[i]) return 1;\n        if (a.length < b.length) return -1;\n        else if (a.length > b.length) return 1;\n        else return 0;\n    }\n\n    /// @dev Compares two strings and returns true iff they are equal.\n    function equal(string memory _a, string memory _b)\n        public\n        pure\n        returns (bool)\n    {\n        return compare(_a, _b) == 0;\n    }\n\n    /// @dev Finds the index of the first occurrence of _needle in _haystack\n    function indexOf(string memory _haystack, string memory _needle)\n        public\n        pure\n        returns (int256)\n    {\n        bytes memory h = bytes(_haystack);\n        bytes memory n = bytes(_needle);\n        if (h.length < 1 || n.length < 1 || (n.length > h.length)) return -1;\n        else if (h.length > (2**128 - 1))\n            // since we have to be able to return -1 (if the char isn't found or input error), this function must return an \"int\" type with a max length of (2^128 - 1)\n            return -1;\n        else {\n            uint256 subindex = 0;\n            for (uint256 i = 0; i < h.length; i++) {\n                if (h[i] == n[0]) // found the first char of b\n                {\n                    subindex = 1;\n                    while (\n                        subindex < n.length &&\n                        (i + subindex) < h.length &&\n                        h[i + subindex] == n[subindex] // search until the chars don't match or until we reach the end of a or b\n                    ) {\n                        subindex++;\n                    }\n                    if (subindex == n.length) return int256(i);\n                }\n            }\n            return -1;\n        }\n    }\n}\n",
  "sourcePath": "/home/ubuntu/Documents/Final year project/truffle-backend/contracts/StringUtils.sol",
  "compiler": {
    "name": "solc",
    "version": "0.7.3+commit.9bfce1f6.Emscripten.clang"
  },
  "schemaVersion": "3.3.3",
  "updatedAt": "2021-02-22T14:08:50.292Z",
  "networkType": "ethereum",
  "devdoc": {
    "kind": "dev",
    "methods": {
      "compare(string,string)": {
        "details": "Does a byte-by-byte lexicographical comparison of two strings.",
        "returns": {
          "_0": "a negative number if `_a` is smaller, zero if they are equal and a positive numbe if `_b` is smaller."
        }
      },
      "equal(string,string)": {
        "details": "Compares two strings and returns true iff they are equal."
      },
      "indexOf(string,string)": {
        "details": "Finds the index of the first occurrence of _needle in _haystack"
      }
    },
    "version": 1
  },
  "userdoc": {
    "kind": "user",
    "methods": {},
    "version": 1
  }
}